:1000000045C0000060C000005EC000005CC0000091
:100010005AC0000058C0000056C0000054C0000084
:1000200052C0000050C000004EC000004CC0000094
:100030004AC0000048C0000046C0000044C00000A4
:10004000D6C1000040C000003EC000003CC000001F
:100050003AC0000038C0000036C0000034C00000C4
:1000600032C0000030C000002EC000002CC00000D4
:100070002AC0000028C0000026C0000024C00000E4
:1000800022C0000020C000001EC0000011241FBEBE
:10009000CFEFD0E4DEBFCDBF11E0A0E0B1E0E4E5FA
:1000A000F9E000E00BBF02C007900D92A431B10748
:1000B000D9F721E0A4E1B1E001C01D92A232B2075C
:1000C000E1F73BD045C49CCF9B01AC01E0ECF0E0F4
:1000D00080818260808360E874E88EE190E016D4CD
:1000E000215031093093C5002093C40088E18093EA
:1000F000C100E2ECF0E080818660808308959091F9
:10010000C00095FFFCCF8093C600089583E28093E2
:10011000B0008BE08093B10080910C018093B3001C
:100120001092B4008AB18C648AB908958091C0009D
:100130008823E4F78091C600089560E072EC81E0C6
:1001400090E0C2DFE3DF46D15FD07894C0E08091D9
:10015000C00088230CF04FC0E9DFD82FE7DF182F4D
:10016000D13151F020F4D03109F43FC044C0D23134
:10017000B1F0D03239F13FC0682F70E080E090E0FC
:10018000AED220E030E048E452E40ED260930001A9
:100190007093010180930201909303012CC0682F9A
:1001A00070E080E090E09BD220E030E048EC52E448
:1001B000FBD1609304017093050180930601909335
:1001C000070119C0682F70E080E090E088D220E03D
:1001D00030E048EC52E4E8D16093080170930901E3
:1001E00080930A0190930B0106C080E188DF812F84
:1001F00086DFC1ECC10F8C2F61D18FE39CE90197A1
:10020000F1F700C00000A3CF82E280938000E1E814
:10021000F0E088E180838FE39CE9909387008093EE
:10022000860080910D0190910E0190938B00809338
:100230008A008AB180618AB9808182608083089552
:100240008436910598F424E1289FA001299F500D40
:1002500011242091110130911201240F351F309388
:100260008B0020938A0080932101089580910F01D3
:100270009091100190938B0080938A0084E6809384
:1002800021010895CF92DF92EF92FF920F931F9377
:10029000CF93C82F682F880F770B80911C018B019B
:1002A000081B110987FD13956C2F0C2E000C770B82
:1002B000880B990B14D26B017C01209118013091AD
:1002C000190140911A0150911B0106D16093180148
:1002D0007093190180931A0190931B0120E030E084
:1002E00048E453E4ACD2181664F480E090E0A8E44B
:1002F000B3E48093180190931901A0931A01B0936D
:100300001B01609118017091190180911A0190915F
:100310001B0120E030E048E453EC42D1882364F430
:1003200080E090E0A8E4B3EC809318019093190169
:10033000A0931A01B0931B01A7019601C701B60152
:10034000CBD020E030E048E452E4C6D06B017C0121
:10035000B801110F880B990BC2D120E030E0A90140
:1003600072D29B01AC01C701B601B6D06B017C0112
:100370002DEC3CEC4CEC5DE360911801709119019F
:1003800080911A0190911B015ED29B01AC01C701C3
:10039000B601A2D071D16B3571058105910524F0AC
:1003A0006AE570E080E090E06A30710581059105B2
:1003B00024F46AE070E080E090E0862F90E040DF77
:1003C000C0931C01CF911F910F91FF90EF90DF9090
:1003D000CF90089582E084BD89EF87BDEEE6F0E01E
:1003E00080818260808385B5836085BD08951F927A
:1003F0000F920FB60F9211248F939F93AF93BF93D9
:1004000080911D0190911E01A0911F01B0912001CA
:100410000196A11DB11D80931D0190931E01A09313
:100420001F01B0932001BF91AF919F918F910F90C9
:100430000FBE0F901F9018952FB7F89460911D0173
:1004400070911E0180911F01909120012FBF08958E
:100450008F929F92AF92BF92CF92DF92EF92FF92D4
:100460000F931F93CF93DF938C01EB01E5DFF8012E
:10047000C080D180E280F3809B01AC012C193D0942
:100480004E095F094E01A12CB12C281539054A05EA
:100490005B0530F0608371838283938381E001C0C8
:1004A00080E0DF91CF911F910F91FF90EF90DF904F
:1004B000CF90BF90AF909F908F900895CF93C82F0B
:1004C0006AE070E084E191E0C3DF882311F08C2FB3
:1004D000D9DECF9108955058BB27AA270ED075C1F9
:1004E00066D130F06BD120F031F49F3F11F41EF44F
:1004F0005BC10EF4E095E7FB51C1E92F77D180F3A2
:10050000BA17620773078407950718F071F49EF510
:100510008FC10EF4E0950B2EBA2FA02D0B01B9015F
:1005200090010C01CA01A0011124FF27591B99F069
:10053000593F50F4503E68F11A16F040A22F232F75
:10054000342F4427585FF3CF469537952795A795C5
:10055000F0405395C9F77EF41F16BA0B620B730B6C
:10056000840BBAF09150A1F0FF0FBB1F661F771FDD
:10057000881FC2F70EC0BA0F621F731F841F48F492
:10058000879577956795B795F7959E3F08F0B3CF18
:100590009395880F08F09927EE0F97958795089502
:1005A000D9D008F481E008950CD00FC107D140F0F4
:1005B000FED030F021F45F3F19F0F0C0511139C185
:1005C000F3C014D198F39923C9F35523B1F3951BC4
:1005D000550BBB27AA2762177307840738F09F5F64
:1005E0005F4F220F331F441FAA1FA9F333D00E2ED3
:1005F0003AF0E0E830D091505040E695001CCAF740
:1006000029D0FE2F27D0660F771F881FBB1F261704
:1006100037074807AB07B0E809F0BB0B802DBF01D7
:10062000FF2793585F4F2AF09E3F510568F0B6C0F0
:1006300000C15F3FECF3983EDCF3869577956795B4
:10064000B795F7959F5FC9F7880F911D9695879588
:1006500097F90895E1E0660F771F881FBB1F6217A7
:1006600073078407BA0720F0621B730B840BBA0B65
:10067000EE1F88F7E095089504D06894B111D9C0B1
:100680000895BCD088F09F5790F0B92F9927B751A3
:10069000A0F0D1F0660F771F881F991F1AF0BA9546
:1006A000C9F712C0B13081F0C3D0B1E00895C0C025
:1006B000672F782F8827B85F39F0B93FCCF386953C
:1006C00077956795B395D9F73EF490958095709599
:1006D00061957F4F8F4F9F4F0895E89409C097FB16
:1006E0003EF490958095709561957F4F8F4F9F4F09
:1006F0009923A9F0F92F96E9BB279395F69587954D
:1007000077956795B795F111F8CFFAF4BB0F11F40F
:1007100060FF1BC06F5F7F4F8F4F9F4F16C08823B6
:1007200011F096E911C0772321F09EE8872F762FEC
:1007300005C0662371F096E8862F70E060E02AF02D
:100740009A95660F771F881FDAF7880F9695879519
:1007500097F90895990F0008550FAA0BE0E8FEEFEE
:1007600016161706E807F907C0F012161306E40775
:10077000F50798F0621B730B840B950B39F40A266E
:1007800061F0232B242B252B21F408950A2609F44C
:10079000A140A6958FEF811D811D089597F99F6750
:1007A00080E870E060E008959FEF80EC08950024F9
:1007B0000A941616170618060906089500240A94C6
:1007C00012161306140605060895092E0394000C4C
:1007D00011F4882352F0BB0F40F4BF2B11F460FFDB
:1007E00004C06F5F7F4F8F4F9F4F089557FD905804
:1007F000440F551F59F05F3F71F04795880F97FBE5
:10080000991F61F09F3F79F087950895121613069E
:100810001406551FF2CF4695F1DF08C016161706CD
:100820001806991FF1CF8695710561050894089502
:10083000E894BB2766277727CB0197F908958ADFCD
:1008400008F48FEF08950BD0C0CFB1DF28F0B6DFEA
:1008500018F0952309F0A2CFA7CF1124EACFC6DF65
:10086000A0F3959FD1F3950F50E0551F629FF001C3
:10087000729FBB27F00DB11D639FAA27F00DB11D1C
:10088000AA1F649F6627B00DA11D661F829F2227A5
:10089000B00DA11D621F739FB00DA11D621F839F2C
:1008A000A00D611D221F749F3327A00D611D231F02
:1008B000849F600D211D822F762F6A2F11249F5750
:1008C00050408AF0E1F088234AF0EE0FFF1FBB1F73
:1008D000661F771F881F91505040A9F79E3F510512
:1008E00070F05CCFA6CF5F3FECF3983EDCF38695CB
:1008F00077956795B795F795E7959F5FC1F7FE2BBD
:10090000880F911D9695879597F90895A1E21A2E63
:10091000AA1BBB1BFD010DC0AA1FBB1FEE1FFF1FA3
:10092000A217B307E407F50720F0A21BB30BE40BF3
:10093000F50B661F771F881F991F1A9469F760953A
:100940007095809590959B01AC01BD01CF010895F4
:04095000F894FFCF49
:1009540000000040CDCCCC3D00000000FFB80BA04F
:040964000FD00700A9
:00000001FF
